:1000000042C0AAC15BC05AC059C058C057C056C0F0
:1000100055C054C053C052C051C050C04FC04EC054
:100020004DC0A1C54BC04AC049C048C047C046C02A
:1000300045C044C0090212000101008019090400F2
:1000400000000000000012011001FF000008C016AF
:10005000DC050401010200010E03550053004200BB
:100060006100730070001C037700770077002E009A
:10007000660069007300630068006C002E00640075
:1000800065000403090411241FBECFEFD4E0DEBFD6
:10009000CDBF11E0A0E0B1E0E2E0F2E102C00590E6
:1000A0000D92A230B107D9F722E0A2E0B1E001C081
:1000B0001D92AE34B207E1F77AD8A1C8A1CFCF9391
:1000C000DF9360912A02635067FD14C020912702DC
:1000D0008CE090E0821B9109EC01C25DDD4F8091C4
:1000E00026028D3209F451C08091020187FD91C032
:1000F00010922A028091010184FF3AC0C091000150
:10010000CF3FB1F1C93008F468C088EF8C0F8093FD
:10011000000190911A0288E8892780931A02C8E0AA
:100120008091020187FD9DC0209128023091290213
:1001300086FF66C0ABE1B2E0F9018C2F94919D93EC
:1001400031968150D9F78FEF8C0F90E00196280FF0
:10015000391F30932902209328026C2F8BE192E003
:10016000F7D084E08C0F8C3009F046C080930101F9
:1001700094E183B1837031F49150D9F710922B023E
:1001800010922502DF91CF910895683009F0B0CF29
:1001900083EC80931A028AE5809301011092020198
:1001A0008881807609F03FC08A811092230299816C
:1001B000911144C01092240223E232E082E0309395
:1001C0002902209328029F81911104C09E819817D3
:1001D00008F4892F809300018BCF10920001909139
:1001E0001A0288E8892780931A02C11199CF60E02A
:1001F0008BE192E0ADD084E09FEF90930001B6CF09
:10020000D901EBE1F2E08C2F9D9191938150E1F7C0
:100210009ACFCE01FBD68F3F01F1882309F468CF36
:100220001092000165CFCE01BCD48F3F61F698815A
:1002300097FD2CC090E890930201CCCF953001F14E
:10024000963031F1983081F1993091F181E09A3016
:1002500009F080E023E232E0B2CF8EE18093010129
:1002600047CF6C2F8BE192E055D6C82F893008F428
:1002700074CF8FEF809300018EE18093010178CFDE
:1002800080932B0223E232E080E099CF8E81D2CF9F
:100290009B819130D9F0923089F09330F9F080E071
:1002A00090E4909302018FCF2DE232E081E087CF7E
:1002B00080932D0223E232E080E081CF84E390E05E
:1002C000909329028093280282E1EACF86E490E0AD
:1002D000909329028093280282E1E2CF811108C025
:1002E00082E890E0909329028093280284E0D8CF9E
:1002F000813051F0823099F688E590E090932902A0
:10030000809328028EE0CCCF86E690E0909329027D
:10031000809328028CE1C4CFE9E6F0E0808183601D
:100320008083E89A0895A82FB92F80E090E041E0FB
:1003300050EA609530E009C02D9182279795879506
:1003400010F084279527305EC8F36F5FA8F30895F7
:10035000EADF8D939D930895CF93CFB7CF93C39545
:10036000189BE9F7189B09C0189B07C0189B05C08C
:10037000189B03C0189B01C0A1C0DF93C091270246
:10038000DD27C25DDD4F189B02C0DF91EBCF2F93BD
:100390000F931F9303B12FEF00FB20F94F933F936F
:1003A00013B14FEF012700FB21F93BE031C04E7F35
:1003B000012F13B1216028C0102F4D7F2260000053
:1003C00003B129C04B7F2460012F000013B12BC063
:1003D00013B1477F28602AC04F7E03B120612CC033
:1003E0004F7D13B120622FC04F7B03B1206432C018
:1003F000422703B149934FEF0000102710FB20F96B
:1004000013B11370C9F1297F91F2012700FB21F983
:1004100003B1237F89F2315058F1102710FB22F9E4
:1004200013B1277E79F2012700FB23F92F7C81F29B
:1004300003B1102710FB24F92F7971F200C013B11A
:10044000012700FB25F92F7359F200C003B11027D3
:1004500010FB26F9223040F200C013B1012700FB47
:1004600027F9243028F64F77206813B10000F9CF20
:1004700011E01CBB002717C03B503195C31BD04077
:1004800011E01CBB0881033CE9F00B34D9F020914A
:1004900025021981110F1213EDCF093641F10D32EA
:1004A00011F0013E39F700932C023F914F911F91BB
:1004B0000F912F91DF91CCB3C0FD51CFCF91CFBF22
:1004C000CF91189520912C02222379F310912A02C2
:1004D000112311F5343012F130932A0220932602B1
:1004E000109127023BE0311B3093270217C0009187
:1004F0002A0201308CF40AE53091010134FD10C06C
:1005000000930101CAE1D2E00FC02795A8F4515031
:10051000A9F4220F0000F9CF4AE503C042ED01C063
:10052000432FC4E1D0E032E014B11360289A14B92B
:1005300005B120E413E05F93012756E005B9279544
:1005400020F4515021F4220FF9CF012756E000008A
:100550003B5A05B9D0F2279528F4515029F4220FBF
:100560000000F9CF012756E0279505B920F4515036
:1005700021F4220FF9CF012756E02991332305B941
:1005800021F60C7F10912B02110FC651D04005B9F6
:1005900011F01093250211E01CBB016014B11C7F07
:1005A000402F4C7F5F9100C000C005B914B945B918
:1005B0007CCF582F48E080E057FD18C02B98550F8E
:1005C000880F1C998F5F2D9A36B52091490296B5F8
:1005D000931B9217E0F32D9836B52091490296B5FA
:1005E000931B9217E0F3415039F708952B9AE7CF08
:1005F0008EBD0DB407FEFDCF8EB50895DC01CB0195
:1006000021E1B695A795979587952A95D1F72091E1
:1006100048022817D9F080934802E0914502F091F2
:1006200046028DE40995E0914502F091460280E092
:100630000995E0914502F0914602809148020995A2
:10064000E0914502F091460280E00994089580917E
:1006500047028CBD809144028DBD08958823A1F08E
:100660008830D0F529ED32E03093460220934502E0
:100670008430F1F008F18630C1F030F18730A1F418
:1006800083E080934902089588EF92E090934602B8
:100690008093450281E08093490282E5809347027E
:1006A00081E080934402089580EC8093490208958C
:1006B00088E1809349020895823051F08330A1F798
:1006C00080E38093490208958CE080934902089565
:1006D00080E680934902089528EF32E03093460285
:1006E000209345021092440291E090934902893090
:1006F00059F070F08B3021F08C3079F690934402F1
:1007000081E580934702089582E58093470208952A
:10071000883019F683E580934702089526B59091B5
:10072000490286B5821B8917E0F3089584B18C6273
:1007300084B92A982D9826B59091490286B5821BD6
:100740008917E0F32A9A26B59091490286B5821B53
:100750008917E0F32A988091450290914602885FBC
:10076000924019F0109248020895809147028CBD82
:10077000809144028DBD10924802089584B1837D1A
:1007800084B985B1837D85B91CBC089580E184B9A5
:1007900084E085B980EC8CBD0895CF93DF93C0E2EF
:1007A000E0914502F09146028CEA0995E0914502FC
:1007B000F091460283E50995E0914502F0914602E9
:1007C00080E00995D82FE0914502F091460280E043
:1007D0000995D33561F11CBC26B59091490286B5C7
:1007E000821B8917E0F32A9A26B59091490286B5B3
:1007F000821B8917E0F32A9826B59091490286B5A5
:10080000821B8917E0F38091450290914602885F30
:10081000924031F0C15021F681E0DF91CF910895EF
:10082000809147028CBD809144028DBDF3CF80E062
:10083000DF91CF910895CF92DF92EF92FF926B01FB
:100840007C01DCDE8C2D8170880F880F880FE09191
:100850004502F091460280620995D701C60129E060
:10086000B695A795979587952A95D1F7E09145027A
:10087000F09146020995D701C601B695A7959795BF
:100880008795E0914502F09146020995E091450275
:10089000F091460280E0FF90EF90DF90CF900994B6
:1008A000CF92DF92EF92FF92CF93DF936B017C01A7
:1008B000C42FD22FA3DE8C2D8170880F880F880F54
:1008C000E0914502F091460280640995D701C60186
:1008D00029E0B695A795979587952A95D1F7E09148
:1008E0004502F09146020995D701C601B695A79534
:1008F00097958795E0914502F09146020995E09120
:100900004502F09146028C2F0995DD23D1F0CF37B7
:10091000B1F0D6B5CEE1C701B6018DDF8F3789F4CE
:1009200086B58D1B8D33B8F3D6B5C150A1F781E0E4
:10093000DF91CF91FF90EF90DF90CF9008958FE0FF
:100940009DD080E0DF91CF91FF90EF90DF90CF902E
:100950000895CF92DF92EF92FF92CF93DF936B01D6
:100960007C01C42F4BDEE0914502F09146028CE4FD
:100970000995D701C60129E0B695A7959795879562
:100980002A95D1F7E0914502F09146020995D701E9
:10099000C601B695A79597958795E0914502F09188
:1009A00046020995E0914502F091460280E00995E2
:1009B000CF3FF1F0D6B5CEE1C701B6013CDF8F3FA6
:1009C00079F486B58D1B8D33B8F3D6B5C150A1F738
:1009D00081E0DF91CF91FF90EF90DF90CF9008956D
:1009E00080E0DF91CF91FF90EF90DF90CF9008955E
:1009F0008FE044D080E0EDCFCF93DF93EC01E09126
:100A00004502F091460280EA0995E0914502F09195
:100A100046028D2F0995E0914502F09146028C2FF8
:100A20000995E0914502F091460280E0DF91CF9177
:100A300009941F93CF93DF93D82F192FC62FE091DE
:100A40004502F091460280EC0995E0914502F09153
:100A50004602812F0995E0914502F09146028D2FC3
:100A60000995E0914502F09146028C2F09958EE19F
:100A700005D080E0DF91CF911F910895882349F040
:100A800030E026B596B5921B9C33E0F33F5F8313AD
:100A9000F8CF0895259A23982B9A50E217D05A95AB
:100AA000E9F70895AC0188E605D0842F03D089E6E4
:100AB00001D0852F0FD028E030E0382780FB8695C5
:100AC00006D02A95D1F730FB02D000D06894239845
:100AD0002B9A16F02B98239AE0914A02F0914B0240
:100AE0003197F0F72D9AE3B1E3FBE0914A02F091E0
:100AF0004B023197F0F72D98089520ECE7DF46F48C
:100B00002A95E1F780E02AE1E5DF2A95E9F7DECFD3
:100B100028E030E0DBDF869587F938272A95D1F782
:100B2000D5DF27F9322772F3D1DFD0CFDB01742F65
:100B3000B9DF84E2BFDFE1DF8D937A95D1F70895C5
:100B4000DB01742FAFDF83EFB5DF8DE1B3DF84E628
:100B5000B1DF8D91AFDF82E7ADDFCFDF8078D9F7EE
:100B60007A9589F7089578941F920F920FB60F9295
:100B700011248F939F93EF93FF93809110019EB563
:100B8000E82FF0E0EE5EFE4F90838F5F80931001C0
:100B9000FF91EF919F918F910F900FBE0F901F903B
:100BA0001895CF93DF93EC0189818130D1F18230A8
:100BB00009F4A9C0833009F464C08430E9F18730B6
:100BC00009F484C0853009F410C1863009F49FC04F
:100BD000883009F4CEC0893009F40CC18A3009F498
:100BE00033C18B3009F450C18C3009F469C18D30A8
:100BF00009F47BC18E3009F47DC18F3009F40BC13B
:100C0000803109F428C18F3709F44FC1803209F4CB
:100C100075C1823209F478C1813209F4CDC080E017
:100C200027C0329B50C080910E0118DD10920D013B
:100C300041987CDD80E01CC080910D0181110EC0C7
:100C40008A819B81092E000CAA0BBB0B80930901A2
:100C500090930A01A0930B01B0930C018E819F81A8
:100C6000909308018093070182E080930F018FEF3A
:100C700022E132E03093290220932802DF91CF91C4
:100C80000895E0914502F09146028A81099580938A
:100C90001202E0914502F09146028B810995809302
:100CA0001302E0914502F09146028C8109958093F0
:100CB0001402E0914502F09146028D8109958093DE
:100CC000150284E0D5CF85E0C9DCB0CF80910D015D
:100CD00081110EC08A819B81092E000CAA0BBB0BCF
:100CE0008093090190930A01A0930B01B0930C012A
:100CF0008E819F81909308018093070183E0809308
:100D00000F018FEFB5CF3ADD419A80E0B1CF8091EE
:100D10000D0181110EC08A819B81092E000CAA0B46
:100D2000BB0B8093090190930A01A0930B01B09330
:100D30000C013C812D81822F8F7080930401822FC2
:100D4000807F40E1849FC0011124830F911D909307
:100D500006018093050120FD809303018E819F8110
:100D6000909308018093070181E080930F018FEF3A
:100D70007FCF80910D0181110EC08A819B81092E48
:100D8000000CAA0BBB0B8093090190930A01A0935E
:100D90000B01B0930C011092060110920501109204
:100DA00004018E819F81909308018093070184E064
:100DB00080930F018FEF5CCF909111013091100162
:100DC000931709F42CCFA2E1B2E080E0E92FF0E024
:100DD000EE5EFE4F20812D939F5F8F5F931711F082
:100DE0008830A1F79093110143CFD7DC8093120292
:100DF00081E03ECF81E080930D018A819B81AC81AF
:100E0000BD818093090190930A01A0930B01B093D7
:100E10000C0180E02DCF8A819B81092E000CAA0B4A
:100E2000BB0B8093090190930A01A0930B01B0932F
:100E30000C018E819F81909308018093070185E0CA
:100E400080930F018FEF14CF8A8180930E0110924F
:100E5000120281E00DCF8A819B81092E000CAA0B22
:100E6000BB0B8093090190930A01A0930B01B093EF
:100E70000C018E819F81909308018093070186E089
:100E800080930F018FEFF4CE8A819B8190934B0268
:100E900080934A022A9A229A83E0F0DD2A984198A8
:100EA00080E1ECDDF7DD80E0E3CE81E080931202AB
:100EB00010921302109214021092150284E0D8CE00
:100EC00080ECF8DD80E0F6DD8AE0D8DD2A9A85E066
:100ED000D5DD2A9885E0D2DD84B1837D84B985B1E2
:100EE000837D85B9419A80E0C3CE07DE80931202EC
:100EF00081E0BECE8A81DEDD80E0BACE47DC87E0CD
:100F000080930F0180E0B4CE419A38DC10920F013B
:100F100080E0AECEFF920F931F93CF93DF93582FB5
:100F2000792FF62E20910F013EEF320F323050F024
:100F3000253009F44EC08FEFDF91CF911F910F91B3
:100F4000FF9008956623A9F18091090190910A010B
:100F5000A0910B01B0910C01C52FD72F3FEF360F99
:100F60008E01030F111D1BC047DD8883809109018D
:100F700090910A01A0910B01B0910C010196A11D65
:100F8000B11D8093090190930A01A0930B01B093C6
:100F90000C01C017D10751F020910F01219622308A
:100FA00019F7BC01CD0147DC8883E0CF87E08F15BE
:100FB00048F010920F018F2DDF91CF911F910F916B
:100FC000FF9008958F2DDF91CF911F910F91FF908A
:100FD0000895462F682F8091090190910A01A6DD9E
:100FE0008091090190910A01A0910B01B0910C012F
:100FF0008F0D911DA11DB11D8093090190930A01D0
:10100000A0930B01B0930C018F2D96CFFF920F93FD
:101010001F93CF93DF93382F792F162F20910F0135
:10102000213061F0243051F0263009F493C08FEF65
:10103000DF91CF911F910F91FF900895112309F433
:10104000B4C08091090190910A01A0910B01B09167
:101050000C01C32FD72F1150AE01410F511D8A0132
:10106000F12C4DC02091050130910601232B09F090
:101070004FC021E04881BC01CD0112DC2091070165
:101080003091080121503109309308012093070164
:10109000232BE1F410920F018091040181FF35C0F0
:1010A0008091030190E020910501309106018217A3
:1010B000930759F16091090170910A0180910B0128
:1010C00090910C01488145DCFF24F3948091090143
:1010D00090910A01A0910B01B0910C010196A11D04
:1010E000B11D8093090190930A01A0930B01B09365
:1010F0000C01C017D10739F120910F012196213041
:1011000009F4B0CF688195DCB9CFFF24F394DECF2A
:1011100020E04881BC01CD01C3DB809103018150F7
:10112000809303018111AACF6091090170910A0196
:1011300080910B0190910C0148810BDC809105019D
:10114000809303019BCF8F2DDF91CF911F910F9142
:10115000FF900895462F682F8091090190910A0110
:10116000EFDC8091090190910A01A0910B01B091EF
:101170000C01810F911DA11DB11D80930901909358
:101180000A01A0930B01B0930C018091070190918B
:101190000801811B91099093080180930701892B15
:1011A00021F410920F0181E043CF80E041CF1BB8C2
:1011B00015B81AB88FEF84B914B883E087B99EEFD9
:1011C00098B985BDA9D8789412E0C0E0D0E877D767
:1011D00080910F018730D9F780914C0290914D0298
:1011E000019790934D0280934C02892B81F788B12F
:1011F000812788B9D0934D02C0934C02E8CFF89470
:02120000FFCF1E
:02120200FF5A91
:00000001FF
